:0E0000000C94BB040C9400000C9400000C94B3
:10000E0000000C9400000C9400000C9400000C9462
:10001E0000000C9400000C94DF050C9400000C946E
:10002E0000000C9400000C9400000C9400000C9442
:10003E0000000C9400000C9400000C9400000C9432
:10004E0000000C9400000C941A080C9400000C9400
:10005E0000000C9400000C9400000C94F5060C9417
:10006E0000000C9400000C9400000C9400000C9402
:10007E0000000C9400000C9400000C94000081848D
:10008E00878A8E9194979A9DA0A3A6A9ACAFB2B57C
:10009E00B7BABDC0C2C5C8CACDCFD2D4D6D9DBDDA2
:1000AE00DFE1E3E5E7E9EAECEEEFF1F2F3F5F6F77F
:1000BE00F8F9FAFBFCFCFDFDFEFEFFFFFFFFFFFF64
:1000CE00FFFFFEFEFDFDFCFCFBFAF9F8F7F6F5F37B
:1000DE00F2F1EFEEECEAE9E7E5E3E1DFDDDBD9D6BD
:1000EE00D4D2CFCDCAC8C5C2C0BDBAB7B5B2AFACF7
:1000FE00A9A6A3A09D9A9794918E8A8784817E7BD0
:10010E007875716E6B6865625F5C595653504D4AD7
:10011E004845423F3D3A373532302D2B2926242291
:10012E00201E1C1A1816151311100E0D0C0A090894
:10013E00070605040303020201010000000000008F
:10014E0000000101020203030405060708090A0C58
:10015E000D0E1011131516181A1C1E2022242629F6
:10016E002B2D303235373A3D3F4245484A4D50539C
:10017E0056595C5F6265686B6E7175787B7E23F491
:10018E0072CB62AE9598A187117AF86EB965E55D6E
:10019E00305760514A4CCD47D0433E40083D203A3F
:1001AE007C371235DC32D330F22E352D982B172AB0
:1001BE00B02860272526FD24E623E022E821FD2035
:1001CE001F204C1F831EC51D0F1D621CBD1B1F1B38
:1001DE00881AF8196D19E9186918EE1779170717A3
:1001EE009A163116CB1569150B15B0145714021447
:1001FE00AF135F131213C7127E123712F311B01121
:10020E006F113011F310B8107E1046100F10D90F69
:10021E00A50F730F410F110FE20EB40E870E5B0E7A
:10022E00310E070EDE0DB60D8F0D690D440D1F0D2F
:10023E00FB0CD80CB60C950C740C540C340C150C21
:10024E00F70BD90BBC0B9F0B830B680B4D0B320BB3
:10025E00180BFE0AE50ACC0AB40A9C0A850A6E0A35
:10026E00570A410A2B0A160A000AEC09D709C309D4
:10027E00AF099C0988097509630950093E092D09C2
:10028E001B090A09F908E808D708C708B708A7081C
:10029E009808880879086A085B084D083E083008F7
:1002AE00220815080708F907EC07DF07D207C5076C
:1002BE00B907AC07A007940788077C077007650786
:1002CE005A074E07430738072D07220718070D0751
:1002DE000307F906EF06E506DB06D106C706BE06DE
:1002EE00B406AB06A10698068F0686067D06740632
:1002FE006C0663065B0652064A064206390631064E
:10030E0029062106340C240C150C060CF70BE80BF1
:10031E00D90BCA0BBC0BAD0B9F0B910B830B750B43
:10032E00680B5A0B4D0B3F0B320B250B180B0B0B9F
:10033E00FE0AF20AE50AD90ACC0AC00AB40AA80AC9
:10034E009C0A910A850A790A6E0A630A570A4C0AB0
:10035E00410A360A2B0A200A160A0B0A000AF60967
:10036E00EC09E109D709CD09C309B909AF09A509F6
:10037E009C09920988097F0975096C0963095A0954
:10038E00500947093E0935092D0924091B0912098F
:10039E000A090109F908F008E808E008D708CF08AB
:1003AE00C708BF08B708AF08A7089F0898089008A5
:1003BE0088088108790872086A0863085B0854087F
:1003CE004D0846083E0837083008290822081B0841
:1003DE0015080E0807080008F907F307EC07E607EB
:1003EE00DF07D907D207CC07C507BF07B907B30781
:1003FE00AC07A607A0079A0794078E0788078207FF
:10040E007C07760770076B0765075F075A07540767
:10041E004E07490743073E07380733072D072807BE
:10042E0022071D07180713070D0708070307FE0607
:10043E00F906F406EF06EA06E506E006DB06D60642
:10044E00D106CC06C706C206BE06B906B406AF066E
:10045E00AB06A606A1069D06980694068F068B0689
:10046E00860682067D067906740670066C06670699
:10047E0063065F065B06560652064E064A0646069B
:10048E0042063D063906350631062D062906250695
:10049E0021061D06340C2C0C240C1D0C150C0D0CF9
:1004AE00060CFE0BF70BEF0BE80BE00BD90BD20B88
:1004BE00CA0BC30BBC0BB50BAD0BA60B9F0B980B4E
:1004CE00910B8A0B830B7C0B750B6E0B680B610B00
:1004DE005A0B530B4D0B460B3F0B390B320B2B0BA1
:1004EE00250B1E0B180B110B0B0B050BFE0AF80A36
:1004FE00F20AEB0AE50ADF0AD90AD30ACC0AC60ABF
:10050E00C00ABA0AB40AAE0AA80AA20A9C0A960A35
:10051E00910A8B0A850A7F0A790A740A6E0A680A9A
:10052E00630A5D0A570A520A4C0A470A410A3C0AF4
:10053E00360A310A2B0A260A200A1B0A160A100A44
:10054E000B0A060A000AFB09F609F109EC09E6098D
:10055E00E109DC09D709D209CD09C809C309BE09C9
:10056E00B909B409AF09AA09A509A0099C099709F7
:10057E0092098D09880984097F097A09750971091B
:10058E006C09670963095E095A09550950094C0936
:10059E00470943093E093A09350931092D09280948
:1005AE0024091F091B09170912090E090A09060950
:1005BE000109FD08F908F508F008EC08E808E40858
:1005CE00E008DC08D708D308CF08CB08C708C30853
:1005DE00BF08BB08B708B308AF08AB08A708A30845
:1005EE009F089C089808940890088C08880885082D
:1005FE0081087D087908750872086E086A08660811
:10060E0063085F085B085808540850084D084908ED
:10061E00460842083E083B083708340830082D08C3
:10062E002908260846103F10381031102A102310C2
:10063E001C1016100F1008100110FB0FF40FED0F09
:10064E00E70FE00FD90FD30FCC0FC60FBF0FB90FA7
:10065E00B20FAC0FA50F9F0F990F920F8C0F860F35
:10066E007F0F790F730F6C0F660F600F5A0F540FB9
:10067E004D0F470F410F3B0F350F2F0F290F230F34
:10068E001D0F170F110F0B0F050FFF0EF90EF30EA7
:10069E00EE0EE80EE20EDC0ED60ED10ECB0EC50E11
:1006AE00BF0EBA0EB40EAE0EA90EA30E9E0E980E6F
:1006BE00920E8D0E870E820E7C0E770E710E6C0EC4
:1006CE00660E610E5B0E560E510E4B0E460E410E11
:1006DE003B0E360E310E2B0E260E210E1C0E170E55
:1006EE00110E0C0E070E020EFD0DF80DF20DED0D96
:1006FE00E80DE30DDE0DD90DD40DCF0DCA0DC50DD0
:10070E00C00DBB0DB60DB10DAC0DA80DA30D9E0DFC
:10071E00990D940D8F0D8A0D860D810D7C0D770D23
:10072E00730D6E0D690D640D600D5B0D560D520D42
:10073E004D0D480D440D3F0D3B0D360D310D2D0D5C
:10074E00280D240D1F0D1B0D160D120D0D0D090D6F
:10075E00040D000DFB0CF70CF30CEE0CEA0CE60C82
:10076E00E10CDD0CD80CD40CD00CCC0CC70CC30C8B
:10077E00BF0CBA0CB60CB20CAE0CAA0CA50CA10C8C
:10078E009D0C990C950C910C8C0C880C840C800C87
:10079E007C0C780C740C700C6C0C680C640C600C7B
:1007AE005C0C580C540C500C4C0C480C440C400C6B
:1007BE003C0C380C69186118591852184A1842180E
:1007CE003A1833182B1823181C1814180D1805185E
:1007DE00FE17F617EE17E717DF17D817D117C91739
:1007EE00C217BA17B317AC17A4179D1796178E1703
:1007FE0087178017791771176A1763175C175517C4
:10080E004E1746173F17381731172A1723171C177D
:10081E0015170E1707170017F916F216EC16E51630
:10082E00DE16D716D016C916C316BC16B516AE16DA
:10083E00A716A1169A1693168D1686167F1679167A
:10084E0072166C1665165E16581651164B16441611
:10085E003E16371631162A1624161E1617161116A0
:10086E000A160416FE15F715F115EB15E415DE152F
:10087E00D815D215CB15C515BF15B915B315AC15B1
:10088E00A615A0159A1594158E15881582157C152A
:10089E0076156F15691563155D15571552154C159F
:1008AE00461540153A1534152E15281522151C150A
:1008BE00171511150B150515FF14FA14F414EE1473
:1008CE00E814E314DD14D714D114CC14C614C014D8
:1008DE00BB14B514B014AA14A4149F149914941430
:1008EE008E14891483147E14781473146D14681482
:1008FE0062145D14571452144D14471442143C14D0
:10090E00371432142C14271422141C141714121416
:10091E000C1407140214FD13F713F213ED13E8135E
:10092E00E313DD13D813D313CE13C913C413BF139C
:10093E00BA13B413AF13AA13A513A0139B139613D4
:10094E0091138C138713010001000300190001009D
:10095E00040554090100050556090100060558094C
:10096E00010008055A090000F894EE27ECBBF1E0EF
:10097E00F5BFE5BFE0936C00F8E1F1BDE1BD8DE0A0
:10098E00A2E0BB27ED938A95E9F780E090E1A0E025
:10099E00B1E0ED930197E9F7ECE5F9E085919591DA
:1009AE00009761F0A591B59105901590BF01F001EA
:1009BE0005900D920197E1F7FB01F0CF8BBFEFEFA2
:1009CE00EDBFE0E1EEBFC0E0D5E00C94EE0403E035
:1009DE00E1E0EBBBEABBA4EFB1E00E94A808E0E0C7
:1009EE00EBBBEABBA4EFB1E00E94A808E1E0EBBBD1
:1009FE00EABBA4EFB1E00E94A808889A9098919A59
:100A0E008A9A929A8B9A8C9A9398949AE3B1EC6103
:100A1E00E3B9E0EEE7BBE0E4E7B9EEECE6B9ECE80B
:100A2E00F0E0E491F0E0FBBDEABDE1EEF0E0E49130
:100A3E00F0E0F9BDE8BDE7E3F1E0E491E093780082
:100A4E00E1E0EFBDEEBDECE7E3BDEBE0E5BDE0E8D8
:100A5E00E7BF7894A8EEB3E00E94A80810910605AF
:100A6E00E0910705F0E0309791F5819905C0012FCF
:100A7E00E2E0E093070570C0103011F4011709F49D
:100A8E0007C0012FE1E0E09307059298909A1EC0EF
:100A9E00123011F4011709F418C0012FE091090565
:100AAE00E17019F09398949A02C0939A9498E091F9
:100ABE000905E170A1E0EA27E1700E2EE09109052B
:100ACE00EE7FE029E093090501C0012F45C0E1301A
:100ADE00A0E0FA0779F581990EC09098E09109058A
:100AEE00ED7FE0930905EB7FE0930905012FE2E02E
:100AFE00E093070531C0113011F4011709F407C056
:100B0E00012FE0910905E260E093090512C0123051
:100B1E0011F4011709F40CC0012FF894E0910905A6
:100B2E00E260E0930905E460E0930905789401C062
:100B3E00012F12C0E230A0E0FA0771F4819B04C0CD
:100B4E00113011F4011709F406C0012FE0E0E09313
:100B5E000705929A01C0012F81CFFFCFAA930E9461
:100B6E002509AD81A03818F4ED81E09501C0ED8125
:100B7E003E2FE32FF0E0EE0FFF1F8F010F5F1040AF
:100B8E00EC81F0E0D8010E94CF088F01012F1127D0
:100B9E0001501F4F169507950F5F1F4F302FAD81D8
:100BAE00A03808F43095E32F0E942A09269608955E
:100BBE000A92AA93BA93EA93FA93EFB7EA931A9327
:100BCE000A93E0910905F0E0F695E795E170F07073
:100BDE00E0FF02C0EE6FFF6F309719F0E0E0F0E03B
:100BEE0004C0E0910205F09103058F01A091070565
:100BFE00A13039F4A0910005B09101050A171B0729
:100C0E0031F4E0E0E0930C05E0930D056AC0A0918D
:100C1E000005B0910105A017B107C0F4E0E0E09324
:100C2E000D05A0910C05AF5FA0930C05E091040596
:100C3E00AE1758F0E0E0E0930C05A0E0B5E0ED91C2
:100C4E00FD913196FE93EE9331974BC0E0E0E09329
:100C5E000C05A0910D05AF5FA0930D05E091050564
:100C6E00AE1710F40C947806E0E0E0930D05A0E0CA
:100C7E00B5E0ED91FD913197FE93EE933196A091F3
:100C8E000005B0910105109729F4E0910905E27075
:100C9E00E23009F026C0E0910905ED7FE0930905E9
:100CAE00E470D1F0E0910905EB7FE0930905E17066
:100CBE0019F09398949A02C0939A9498E09109052A
:100CCE00E170A1E0EA27E1700E2EE0910905EE7FBA
:100CDE00E029E093090505C0E0E0E0930705929A4C
:100CEE009098E0910005F0910105309721F0A091C8
:100CFE000705A13009F026C02297E0910005F0917A
:100D0E0001053197ACE8B1E0EE0FFF1FEA0FFB1FB4
:100D1E000E941C09E883F983E981E0938700E8814A
:100D2E00E0938600EFB5E86AEFBDE3E0E0938B0059
:100D3E00E9E1E0938A00E0917D00E061E0937D00BF
:100D4E00229614C0EFB5E775EFBDE0E0E0938B009F
:100D5E00E0938A00E0938900E0938800E0917D00A3
:100D6E00EF7EE0937D00E0E1E0937C00A0910A0528
:100D7E00AF5FA0930A05A43181F52197E0E0E093DF
:100D8E000A05E1B1EC71E883F0E0E831A0E0FA0782
:100D9E0011F4E0E00DC0E431A0E0FA0711F4E1E057
:100DAE0007C0EC30A0E0FA0711F4E2E001C0E3E086
:100DBE00E0930605A0910B05AF5FA0930B05AA303B
:100DCE0059F4E0E0E0930B05A0910705A23021F461
:100DDE00E2B3A4E0EA27E2BB2196A9C10A921A92D5
:100DEE00FA926A937A938A939A93AA93BA93EA930E
:100DFE00FA93EFB7EA93A0910005B0910105AC31DB
:100E0E00E3E0BE0720F0E0910E05E05F27C0A09161
:100E1E000005B0910105A435E2E0BE0720F0E09197
:100E2E000E05E85F1BC0A0910005B0910105AC381E
:100E3E00E1E0BE0720F0E0910E05EC5F0FC0A0913F
:100E4E000005B0910105A43CE0E0BE0720F0E09162
:100E5E000E05EE5F03C0E0910E05EF5FE0930E0509
:100E6E00A0910005B0910105AF3EE1E0BE0710F480
:100E7E000C947F07E0910905E170B9F0E0910E0541
:100E8E00F0E0E457FF4FE491F0E0FBBDEABDE091E6
:100E9E000E05F0E0EB5AFF4FF0E0F0E0E457FF4FA5
:100EAE00E491F0E0F9BDE8BD16C0E0910E05F0E06A
:100EBE00E457FF4FE491F0E0F9BDE8BDE0910E0577
:100ECE00F0E0EB5AFF4FF0E0F0E0E457FF4FE49113
:100EDE00F0E0FBBDEABDE0910E05F0E0E555FF4FF9
:100EEE00F0E0F0E0E457FF4FE491E09378008DC01E
:100EFE002497E0910805F0E0AFEFB0E0AE1BBF0B1A
:100F0E00E0910005F09101053197662777270E9441
:100F1E00CA080E94D708DF01CB01EEEEF1E060E0D7
:100F2E0070E00E94F708DF01CB01E0910805F0E0C8
:100F3E000E94C5080E94B2080E942009E091000597
:100F4E00F0910105319766277727DF01CB01EEEE91
:100F5E00F1E060E070E00E94F708DF01CB01E09164
:100F6E000805F0E00E94C5080E94B2080E94200900
:100F7E00E0910905E170E9F0E0910E05F0E0E4572B
:100F8E00FF4FE491EA93A981E9DDF0E0FBBDEABDF4
:100F9E00E0910E05F0E0EB5AFF4FF0E0F0E0E45781
:100FAE00FF4FE491EA93A981D9DDF0E0F9BDE8BDE8
:100FBE001CC0E0910E05F0E0E457FF4FE491EA9378
:100FCE00A981CCDDF0E0F9BDE8BDE0910E05F0E0C1
:100FDE00EB5AFF4FF0E0F0E0E457FF4FE491EA9355
:100FEE00A981BCDDF0E0FBBDEABDE0910E05F0E0AD
:100FFE00E555FF4FF0E0F0E0E457FF4FE491EA9340
:10100E00A981ACDDE09378002496E991EFBFF991C8
:10101E00E991B991A9919991899179916991F990F3
:10102E001990099018950A92AA93BA93EA93FA9393
:10103E00EFB7EA931A930A93E4B1F5B1A0910F05B5
:10104E00B0911005EA0FFB1FE0930F05F09310050A
:10105E00A0911105AF5FA0931105A03411F00C946F
:10106E009D08E0E0E0931105A0910F05B0911005E9
:10107E00E6E00E94B7088F01E0E0E0930F05E093F1
:10108E001005E0911205F0E03097C9F40E30E0E063
:10109E001E0730F4E0E0E0930205E09303050DC077
:1010AE00023FE3E01E0718F4F8013D9702C0E4EE9C
:1010BE00F3E0E0930205F0930305E1E42CC0E13088
:1010CE00A0E0FA0761F4002E012A21F0F8010E9437
:1010DE00C00801C0E1E0E0930405E2E41CC0E23088
:1010EE00A0E0FA0761F4002E012A21F0F8010E9417
:1010FE00C00801C0E1E0E0930505E3E40CC0E33075
:10110E00A0E0FA0749F4D801E5E00E94B708E75ECF
:10111E00E0930805E0E4E7B9A0911205AF5FA09354
:10112E001205A43019F4E0E0E0931205369A099105
:10113E001991E991EFBFF991E991B991A9910990AE
:10114E001895109639F080ED97E00197F1F7A89574
:10115E001197C9F70895EA0FFB1F681F791F0895AD
:10116E00EE230E2EFD0121F0F695E7950A94E1F798
:10117E000895F695E795F695E79508956F2F660F06
:10118E00660B762F08958B2F880F880B982F089556
:10119E00FA9FF02DEB9FF00DEA9FE02DF10D0895D3
:1011AE007A9F702D6B9F700DF89F700DE99F700DDB
:1011BE006A9F602D710DFB9F600D711DE89F600D84
:1011CE00711D8827FA9FF02D610D781FEB9FF00D92
:1011DE00611D781FEA9FE02DF10D681F781F08959D
:1011EE003F934F935F93002411244427552730E2F9
:1011FE00AA0FBB1F881F991F001C111C441F551FCF
:10120E000E1A1F0A460B570B28F40E0E1F1E461FF2
:10121E00571F01C0A1603A9559F7FD01BC01D001DD
:10122E00CA015F914F913F9108950590F491E02D81
:10123E000895E883F9836A837B8308953A932A930A
:10124E001A930A9308953B812A8119810881089582
:00000001FF
