:100000000C949B050C94B8050C94B8050C94B80599
:100010000C94B8050C94B8050C94B8050C94B8056C
:100020000C94B8050C9436080C94B8050C94B805DB
:100030000C94B8050C94B8050C94B8050C94B8054C
:100040000C94B8050C94B8050C94B8050C94B8053C
:100050000C94B8050C9413070C94B8050C94B805CF
:100060000C94B8050C94B8050C943E070C94B80594
:100070000C94B8050C94B8050C94B8050C94B8050C
:100080000C94B8050C94B8050C94B8050000000059
:100090000000005F00000007000700147F147F14B9
:1000A000242A7F2A122313086462364955225000FD
:1000B00005030000001C2241000041221C00082A08
:1000C0001C2A0808083E08080050300000080808EC
:1000D0000808003030000020100804023E51494555
:1000E0003E00427F400042615149462141454B312B
:1000F0001814127F1027454545393C4A49493001BB
:10010000710905033649494936064949291E003611
:100110003600000056360000000814224114141462
:100120001414412214080002015109063249794190
:100130003E7E1111117E7F494949363E414141229F
:100140007F4141221C7F494949417F090901013E04
:10015000414151327F0808087F00417F4100204023
:10016000413F017F081422417F404040407F02040C
:10017000027F7F0408107F3E4141413E7F0909090B
:10018000063E4151215E7F091929464649494931B8
:1001900001017F01013F4040403F1F2040201F7F61
:1001A0002018207F6314081463030478040361514A
:1001B00049454300007F4141020408102041417F2E
:1001C00000000402010204404040404000010204DB
:1001D0000020545454787F484444383844444420E0
:1001E000384444487F3854545418087E09010208A2
:1001F0001454543C7F0804047800447D400020409F
:10020000443D00007F10284400417F40007C0418DA
:1002100004787C0804047838444444387C1414146A
:1002200008081414187C7C0804040848545454200A
:10023000043F4440203C4040207C1C2040201C3C8B
:100240004030403C44281028440C5050503C4464FA
:10025000544C44000836410000007F000000413645
:10026000080008082A1C08081C2A080880838689B8
:100270008C8F9295989C9FA2A5A8ABAEB0B3B6B94F
:10028000BCBFC1C4C7C9CCCED1D3D5D8DADCDEE07F
:10029000E2E4E6E8EAECEDEFF0F2F3F5F6F7F8F970
:1002A000FAFBFCFCFDFEFEFFFFFFFFFFFFFFFFFF71
:1002B000FFFFFEFEFDFCFCFBFAF9F8F7F6F5F3F2A2
:1002C000F0EFEDECEAE8E6E4E2E0DEDCDAD8D5D304
:1002D000D1CECCC9C7C4C1BFBCB9B6B3B0AEABA850
:1002E000A5A29F9C9895928F8C898683807C797635
:1002F00073706D6A6763605D5A5754514F4C49463D
:1003000043403E3B383633312E2C2A272523211FEC
:100310001D1B1917151312100F0D0C0A09080706DB
:1003200005040303020101000000000000000000BA
:10033000000001010203030405060708090A0C0D69
:100340000F1012131517191B1D1F212325272A2CE7
:100350002E313336383B3E404346494C4F5154577B
:100360005A5D6063676A6D707376797C000024F46F
:1003700073CB63AE9698A287127AF96EBA65E65D82
:10038000315761514B4CCE47D1433F40093D213A53
:100390007D371335DD32D430F32E362D992B182AC4
:1003A000B12861272626FE24E723E122E921FE2049
:1003B00020204D1F841EC61D101D631CBE1B201B4C
:1003C000891AF9196E19EA186A18EF177A170817B7
:1003D0009B163216CC156A150C15B114581403145B
:1003E000B01360131313C8127F123812F411B11135
:1003F00070113111F410B9107F1047101010DA0F7E
:10040000A60F740F420F120FE30EB50E880E5C0E8E
:10041000320E080EDF0DB70D900D6A0D450D200D43
:10042000FC0CD90CB70C960C750C550C350C160C35
:10043000F80BDA0BBD0BA00B840B690B4E0B330BC7
:10044000190BFF0AE60ACD0AB50A9D0A860A6F0A49
:10045000580A420A2C0A170A010AED09D809C409E8
:10046000B0099D0989097609640951093F092E09D6
:100470001C090B09FA08E908D808C808B808A80830
:10048000990889087A086B085C084E083F0831080B
:10049000230816080808FA07ED07E007D307C60780
:1004A000BA07AD07A107950789077D07710766079A
:1004B0005B074F07440739072E07230719070E0765
:1004C0000407FA06F006E606DC06D206C806BF06F2
:1004D000B506AC06A2069906900687067E06750646
:1004E0006D0664065C0653064B0643063A06320662
:1004F0002A062206350C250C160C070CF80BE90B06
:10050000DA0BCB0BBD0BAE0BA00B920B840B760B57
:10051000690B5B0B4E0B400B330B260B190B0C0BB3
:10052000FF0AF30AE60ADA0ACD0AC10AB50AA90ADD
:100530009D0A920A860A7A0A6F0A640A580A4D0AC4
:10054000420A370A2C0A210A170A0C0A010AF7097B
:10055000ED09E209D809CE09C409BA09B009A6090A
:100560009D0993098909800976096D0964095B0968
:10057000510948093F0936092E0925091C091309A3
:100580000B090209FA08F108E908E108D808D008BF
:10059000C808C008B808B008A808A00899089108B9
:1005A000890882087A0873086B0864085C08550893
:1005B0004E0847083F08380831082A0823081C0855
:1005C00016080F0808080108FA07F407ED07E707FF
:1005D000E007DA07D307CD07C607C007BA07B40795
:1005E000AD07A707A1079B0795078F078907830713
:1005F0007D07770771076C07660760075B0755077C
:100600004F074A0744073F07390734072E072907D2
:1006100023071E07190714070E0709070407FF061B
:10062000FA06F506F006EB06E606E106DC06D70656
:10063000D206CD06C806C306BF06BA06B506B00682
:10064000AC06A706A2069E069906950690068C069D
:10065000870683067E067A06750671066D066806AD
:10066000640660065C06570653064F064B064706AF
:1006700043063E063A06360632062E062A062606A9
:1006800022061E06350C2D0C250C1E0C160C0E0C0D
:10069000070CFF0BF80BF00BE90BE10BDA0BD30B9C
:1006A000CB0BC40BBD0BB60BAE0BA70BA00B990B62
:1006B000920B8B0B840B7D0B760B6F0B690B620B14
:1006C0005B0B540B4E0B470B400B3A0B330B2C0BB5
:1006D000260B1F0B190B120B0C0B060BFF0AF90A4A
:1006E000F30AEC0AE60AE00ADA0AD40ACD0AC70AD3
:1006F000C10ABB0AB50AAF0AA90AA30A9D0A970A4A
:10070000920A8C0A860A800A7A0A750A6F0A690AAE
:10071000640A5E0A580A530A4D0A480A420A3D0A08
:10072000370A320A2C0A270A210A1C0A170A110A58
:100730000C0A070A010AFC09F709F209ED09E709A1
:10074000E209DD09D809D309CE09C909C409BF09DD
:10075000BA09B509B009AB09A609A1099D0998090B
:1007600093098E098909850980097B09760972092F
:100770006D09680964095F095B09560951094D094A
:10078000480944093F093B09360932092E0929095C
:10079000250920091C09180913090F090B09070964
:1007A0000209FE08FA08F608F108ED08E908E5086C
:1007B000E108DD08D808D408D008CC08C808C40867
:1007C000C008BC08B808B408B008AC08A808A40859
:1007D000A0089D089908950891088D088908860841
:1007E00082087E087A08760873086F086B08670825
:1007F000640860085C085908550851084E084A0802
:10080000470843083F083C083808350831082E08D7
:100810002A08270847104010391032102B102410D6
:100820001D101710101009100210FC0FF50FEE0F1D
:10083000E80FE10FDA0FD40FCD0FC70FC00FBA0FBB
:10084000B30FAD0FA60FA00F9A0F930F8D0F870F49
:10085000800F7A0F740F6D0F670F610F5B0F550FCD
:100860004E0F480F420F3C0F360F300F2A0F240F48
:100870001E0F180F120F0C0F060F000FFA0EF40EBA
:10088000EF0EE90EE30EDD0ED70ED20ECC0EC60E25
:10089000C00EBB0EB50EAF0EAA0EA40E9F0E990E83
:1008A000930E8E0E880E830E7D0E780E720E6D0ED8
:1008B000670E620E5C0E570E520E4C0E470E420E25
:1008C0003C0E370E320E2C0E270E220E1D0E180E69
:1008D000120E0D0E080E030EFE0DF90DF30DEE0DAA
:1008E000E90DE40DDF0DDA0DD50DD00DCB0DC60DE4
:1008F000C10DBC0DB70DB20DAD0DA90DA40D9F0D11
:100900009A0D950D900D8B0D870D820D7D0D780D37
:10091000740D6F0D6A0D650D610D5C0D570D530D56
:100920004E0D490D450D400D3C0D370D320D2E0D70
:10093000290D250D200D1C0D170D130D0E0D0A0D83
:10094000050D010DFC0CF80CF40CEF0CEB0CE70C96
:10095000E20CDE0CD90CD50CD10CCD0CC80CC40C9F
:10096000C00CBB0CB70CB30CAF0CAB0CA60CA20CA0
:100970009E0C9A0C960C920C8D0C890C850C810C9B
:100980007D0C790C750C710C6D0C690C650C610C8F
:100990005D0C590C550C510C4D0C490C450C410C7F
:1009A0003D0C390C6A1862185A1853184B18431822
:1009B0003B1834182C1824181D1815180E18061872
:1009C000FF17F717EF17E817E017D917D217CA174D
:1009D000C317BB17B417AD17A5179E1797178F1717
:1009E000881781177A1772176B1764175D175617D8
:1009F0004F1747174017391732172B1724171D1792
:100A000016170F1708170117FA16F316ED16E61644
:100A1000DF16D816D116CA16C416BD16B616AF16EE
:100A2000A816A2169B1694168E16871680167A168E
:100A300073166D1666165F16591652164C16451625
:100A40003F16381632162B1625161F1618161216B4
:100A50000B160516FF15F815F215EC15E515DF1543
:100A6000D915D315CC15C615C015BA15B415AD15C5
:100A7000A715A1159B1595158F15891583157D153E
:100A8000771570156A1564155E15581553154D15B3
:100A9000471541153B1535152F15291523151D151E
:100AA000181512150C1506150015FB14F514EF1486
:100AB000E914E414DE14D814D214CD14C714C114EC
:100AC000BC14B614B114AB14A514A0149A14951444
:100AD0008F148A1484147F14791474146E14691496
:100AE00063145E14581453144E14481443143D14E4
:100AF000381433142D14281423141D14181413142B
:100B00000D1408140314FE13F813F313EE13E91372
:100B1000E413DE13D913D413CF13CA13C513C013B0
:100B2000BB13B513B013AB13A613A1139C139713E8
:100B300092138D13881311241FBECFEFD0E1DEBFB7
:100B4000CDBF11E0A0E0B1E0EEE7FBE102C005900F
:100B50000D92AE36B107D9F711E0AEE6B1E001C0B3
:100B60001D92A339B107E1F70E948B0A0C94BD0DC9
:100B70000C940000DF93CF930F92CDB7DEB769835B
:100B8000AB98A898882311F0A99A01C0A99885B3B9
:100B9000A89A27E030E0FE013196A898808190E085
:100BA000022E02C0959587950A94E2F780FF02C055
:100BB000A99A01C0A99885B3A89A215030408FEF17
:100BC0002F3F380751F7AB9A0F90CF91DF910895DF
:100BD0001F93182F6F70606B80E00E94BA05612F21
:100BE0006F7080E00E94BA0512951770106180E066
:100BF000612F0E94BA051F9108950F931F9380E003
:100C000060E00E94E80580E06EEA0E94BA0500E01C
:100C10000AC081E060E00E94BA051F5F1036C9F784
:100C20000F5F093011F010E0F4CF80E06FEA0E940E
:100C3000BA051F910F910895A39AAB9AA19AA9980A
:100C4000A09AA898A29AAA98AB9884EF91E028EC71
:100C500030E0F9013197F1F70197D9F7AA9A80E0CE
:100C600063E20E94BA0580E060E90E94BA0580E074
:100C700064EA0E94BA0580E06FE20E94BA0580E053
:100C800060E40E94BA0580E060EB0E94BA0580E053
:100C900060E10E94BA0580E060E00E94BA0580E051
:100CA00068EC0E94BA0580E061EA0E94BA0580E023
:100CB0006CEA0E94BA0580E067E00E94BA0580E015
:100CC0006FEA0E94BA050E94FD0580E067EA0E9473
:100CD000BA0588E893E128EC30E0F9013197F1F7A3
:100CE0000197D9F780E066EA0E94BA0588E893E1A7
:100CF00028EC30E0F9013197F1F70197D9F7089521
:100D000008951F93182F80E061E20E94BA051068D1
:100D100080E0612F0E94BA0580E060E20E94BA057F
:100D20001F910895089508950895089508950F93C3
:100D30001F93CF93DF9395E0899FC0011124EC01AD
:100D4000C451D0408C010B59104004571F4FFE0175
:100D50006491660F81E00E94BA052196C017D10701
:100D6000B1F781E060E00E94BA05DF91CF911F9159
:100D70000F910895CF93DF93EC0180E06EEA0E941B
:100D8000BA0503C021960E94970688818823D1F76F
:100D90006FEA0E94BA05DF91CF910895379A35988E
:100DA00086B1887F866086B987B18F73806487B982
:100DB0003D98339A10927A01789408953398379831
:100DC000089596B1987F982B96B9089597B182951A
:100DD000880F880F807C9F73982B97B9089597B1DF
:100DE0008F71907E892B87B90895349A369A089529
:100DF00086B18074089510927A0197B18F71907EB8
:100E0000892B87B9349A369A80917A018823E1F345
:100E100024B135B1C90108950E94FB0696958795C6
:100E20009695879508951F920F920FB60F921124F1
:100E30008F9381E080937A018F910F900FBE0F9076
:100E40001F901895482F87FF809590E0880F991F75
:100E50008F5F9040262F30E0BC01629FC001639FEE
:100E6000900D729F900D1124892F992781509F4FCB
:100E7000969587958F5F47FF809508951F920F92F3
:100E80000FB60F921124DF92EF92FF920F931F93F0
:100E90002F933F934F935F936F937F938F939F9382
:100EA000AF93BF93EF93FF93809170019091710185
:100EB0008C51934020F080917201805F24C080911A
:100EC0007001909171018455924020F080917201DF
:100ED000885F19C080917001909171018C58914088
:100EE00020F0809172018C5F0EC080917001909112
:100EF0007101843C910520F0809172018E5F03C0E6
:100F0000809172018F5F8093720180917001909146
:100F100071018F5E9140F0F0E0917201F0E0E459D0
:100F2000FD4FE4918E2F90E09BBD8ABDE091720150
:100F3000EC5AF0E0E459FD4FE4918E2F90E099BD1A
:100F400088BDE0917201E655F0E0E459FD4FE4916F
:100F50008E2F71C080917001909171018036910542
:100F600028F5E0917201F0E0E459FD4FE4918E2FF5
:100F700069E10E94220790E09BBD8ABDE091720169
:100F8000EC5AF0E0E459FD4FE4918E2F69E10E94A4
:100F9000220790E099BD88BDE0917201E655F0E02E
:100FA000E459FD4FE4918E2F69E143C060917001D7
:100FB0007091710180917201E82FF0E0E459FD4FCA
:100FC000D4906F55704080E090E026EE30E040E035
:100FD00050E00E94900A20E931E040E050E00E9499
:100FE000C30A79018A0189E190E0A0E0B0E0E80E4F
:100FF000F91E0A1F1B1F8D2D6E2D0E94220790E0E7
:101000009BBD8ABDE0917201EC5AF0E0E459FD4FBE
:10101000E4918E2F6E2D0E94220790E099BD88BD2D
:10102000E0917201E655F0E0E459FD4FE4918E2F16
:101030006E2D0E94220790E09093790080937800B3
:10104000FF91EF91BF91AF919F918F917F916F91A0
:101050005F914F913F912F911F910F91FF90EF90D2
:10106000DF900F900FBE0F901F9018951F920F9258
:101070000FB60F9211242F933F938F939F93EF936B
:10108000FF93209170013091710180916E019091D8
:101090006F012817390798F4109276018091770133
:1010A0008F5F8093770190910001891770F1109202
:1010B0007701809170019091710101961DC020917E
:1010C00070013091710180916E0190916F018217D2
:1010D0009307B8F410927701809176018F5F809327
:1010E000760190910101891780F01092760180912C
:1010F000700190917101019790937101809370013B
:1011000004C0109277011092760180917001909145
:101110007101892B71F1E0917001F0917101EE0F75
:10112000FF1FE459FC4F859194910197909387009C
:101130008093860080917301882381F58FB5806844
:101140008FBD8FB580628FBD8FB588608FBD81E008
:101150008093730180918A00887F816080938A00E8
:1011600080917C00806180937C0080917D00806113
:1011700013C08FB58F778FBD8FB58F7D8FBD8FB526
:10118000877F8FBD1092730180918A00887F809342
:101190008A0080917D008F7E80937D008091740114
:1011A0009091750101969093750180937401FF9160
:1011B000EF919F918F913F912F910F900FBE0F90C4
:1011C0001F901895BD9A8FB58F778FBDBE9A8FB53A
:1011D0008F7D8FBDBF9A8FB5877F8FBD8091720144
:1011E00090E09BBD8ABD809172018C5A90E099BDC0
:1011F00088BD80917201865590E09093790080932C
:10120000780081E08FBD8EB5887F81608EBD83E0E0
:1012100080938B0088E180938A008CE783BD8BE00C
:1012200085BD86B7806886BF87B7806887BF089509
:101230008E30910528F410926F0110926E010CC04F
:1012400023E0823F920710F40D9702C084EE93E0F2
:1012500090936F0180936E0120916E0130916F0128
:101260002C5F3F4FC9010895882309F481E08093E2
:101270000001809100010895882309F481E08093A2
:101280000101809101010895A79AAF98A59AAD98A0
:10129000A69AAE98089590E048EC50E013C0AF9A3B
:1012A00028E532E0FA013197F1F721503040D1F7CB
:1012B000AF9828E037E0FA013197F1F7215030403C
:1012C000D1F79F5F981758F308958F929F92AF922E
:1012D000BF92CF92DF92EF92FF920F931F93CF9323
:1012E000DF930E94E208809161008E7F809361000D
:1012F000809162008E7F80936200809161008D7F7B
:1013000080936100809162008D7F80936200809164
:1013100061008B7F80936100809162008B7F80935E
:101320006200CBE7D1E022E0822E21E0922E95E10F
:10133000A92E91E0B92E84E2C82E81E0D82E80E05B
:101340000E94FB068C0181E00E940C07F82E82E0CF
:101350000E940C07E82EC8010E9418098C018F2DED
:101360000E943409F82E8E2D0E943C09E82E8DB77C
:101370009EB708970FB6F8949EBF0FBE8DBFEDB70E
:10138000FEB73196ADB7BEB71296DC93CE931197E8
:1013900093828282C8016AE070E00E94AF0A75837E
:1013A0006483C8016AE070E00E94AF0A9783868375
:1013B0000E94E50A8DB79EB708960FB6F8949EBFB7
:1013C0000FBE8DBF82E061E00E94E805CE010E9461
:1013D000BA0600D000D000D0EDB7FEB73196ADB759
:1013E000BEB71296DC93CE931197B382A282F48299
:1013F00015820E94E50A8DB79EB706960FB6F8943F
:101400009EBF0FBE8DBF82E063E00E94E805CE0163
:101410000E94BA0600D000D000D0EDB7FEB73196DA
:10142000ADB7BEB71296DC93CE931197D382C2822A
:10143000E48215820E94E50A8DB79EB706960FB624
:10144000F8949EBF0FBE8DBF82E065E00E94E80564
:10145000CE010E94BA0673CF82E060E00E94E805E8
:1014600083E391E00E94BA0682E062E00E94E80510
:1014700082E491E00E94BA0682E063E00E94E805FF
:1014800087E491E00E94BA0682E065E00E94E805E8
:1014900086E591E00E94BA0682E066E00E94E805D7
:1014A00081E691E00E94BA0680E395E728EC30E0FF
:1014B000F9013197F1F70197D9F70E94FD050895D9
:1014C000F8940E9444090E94CE0688E893E128EC33
:1014D00030E0F9013197F1F70197D9F70E941C0626
:1014E0008AE00E94810681E00E94920682E00E94CA
:1014F0004B0988E893E128EC30E0F9013197F1F7E6
:101500000197D9F70E94FD050E942C0A81E00E94F4
:101510004B09789408950E94600A0E946509FFCFE4
:10152000629FD001739FF001829FE00DF11D649FC7
:10153000E00DF11D929FF00D839FF00D749FF00D53
:10154000659FF00D9927729FB00DE11DF91F639FF4
:10155000B00DE11DF91FBD01CF0111240895AA1B93
:10156000BB1B51E107C0AA1FBB1FA617B70710F08E
:10157000A61BB70B881F991F5A95A9F780959095C0
:10158000BC01CD010895A1E21A2EAA1BBB1BFD01CF
:101590000DC0AA1FBB1FEE1FFF1FA217B307E40752
:1015A000F50720F0A21BB30BE40BF50B661F771FAA
:1015B000881F991F1A9469F760957095809590958A
:1015C0009B01AC01BD01CF010895AEE0B0E0EBEEB0
:1015D000FAE00C94940D0D891E8986E08C831A83A1
:1015E00009838FEF9FE79E838D839E01275E3F4F88
:1015F000CE0101966F89788DA9010E94090B2F8178
:101600003885020F131FF80110822E96E4E00C9427
:10161000B00DABE0B0E0EFE0FBE00C94860D3C01D8
:101620002B015A01FC0117821682838181FD03C0C0
:101630006FEF7FEFC6C19AE0892E1E010894211C2E
:10164000311CF3012381F20123FD859123FF819158
:101650002F01882309F4B2C1853239F423FD859125
:1016600023FF81912F01853229F490E0B3010E947C
:10167000FC0CE7CF982FFF24EE249924FFE1FF15FF
:10168000D0F09B3269F09C3228F4903259F09332BA
:1016900091F40EC09D3249F0903369F441E024C0CA
:1016A00052E0F52A84E0F82A28C098E0F92A25C0FB
:1016B000E0E1FE2A22C0F7FC29C0892F80538A303E
:1016C00070F4F6FE05C0989C902C1124980E15C05D
:1016D000E89CE02C1124E80EF0E2FF2A0EC09E32B6
:1016E00029F4F6FC6BC140E4F42A07C09C3619F4D7
:1016F00050E8F52A02C0983649F4F20123FD95918D
:1017000023FF91912F01992309F0B8CF892F855498
:10171000833018F08052833038F444E050E0A40E57
:10172000B51E5FE359830FC0933631F0933779F0DC
:10173000933509F056C020C0F5018081898342E0CD
:1017400050E0A40EB51E610101E010E012C0F501E9
:10175000C080D180F6FC03C06FEF7FEF02C0692D1F
:1017600070E042E050E0A40EB51EC6010E94F10CEC
:101770008C015FE7F52214C0F501C080D180F6FC32
:1017800003C06FEF7FEF02C0692D70E042E050E0D0
:10179000A40EB51EC6010E94E60C8C0150E8F52A85
:1017A000F3FE07C01AC080E290E0B3010E94FC0C77
:1017B000EA948E2D90E008171907A8F30EC0F601E1
:1017C000F7FC8591F7FE81916F0190E0B3010E94D3
:1017D000FC0CE110EA94015010400115110579F755
:1017E000EAC0943611F0993669F5F7FE08C0F501A4
:1017F000208131814281538184E090E00AC0F5016B
:10180000808191819C01442737FD4095542F82E0CF
:1018100090E0A80EB91E9FE6F92257FF09C0509527
:101820004095309521953F4F4F4F5F4FE0E8FE2A9E
:10183000CA01B901A1012AE030E00E94280DD82E8A
:10184000D21840C0953729F41F2D1F7E2AE030E0C2
:101850001DC01F2D197F9F3661F0903720F49835F9
:1018600009F0ACC00FC0903739F0983709F0A6C026
:1018700004C028E030E00AC0106114FD146020E1CB
:1018800030E004C014FD166020E132E017FF08C00C
:10189000F501608171818281938144E050E008C04C
:1018A000F50180819181BC0180E090E042E050E050
:1018B000A40EB51EA1010E94280DD82ED2188FE7C4
:1018C000F82EF122F6FE0BC05EEFF522D91438F4A3
:1018D000F4FE07C0F2FC05C08FEEF82202C01D2DF9
:1018E00001C0192DF4FE0DC0FE01ED0DF11D80812A
:1018F000803319F499EEF92208C01F5FF2FE05C08B
:1019000003C08F2D867809F01F5F0F2DF3FC14C0E4
:10191000F0FE0FC01E1510F09D2C0BC09D2C9E0CD0
:10192000911A1E2D06C080E290E0B3010E94FC0CCB
:101930001F5F1E15C0F304C01E1510F4E11A01C08C
:10194000EE2404FF0FC080E390E0B3010E94FC0C82
:1019500002FF1DC001FD03C088E790E00EC088E5CE
:1019600090E00BC0802F867891F001FF02C08BE2DF
:1019700001C080E2F7FC8DE290E0B3010E94FC0C14
:1019800006C080E390E0B3010E94FC0C9A94D91445
:10199000C0F3DA94F101ED0DF11D808190E0B30107
:1019A0000E94FC0CDD20A9F706C080E290E0B301A4
:1019B0000E94FC0CEA94EE20C1F743CEF30166814D
:1019C0007781CB012B96E2E10C94A20DFC010590EE
:1019D000615070400110D8F7809590958E0F9F1F31
:1019E0000895FC016150704001900110D8F7809576
:1019F00090958E0F9F1F08950F931F93CF93DF93A2
:101A00008C01EB018B8181FF1BC082FF0DC02E81F9
:101A10003F818C819D812817390764F4E881F98121
:101A20000193F983E88306C0E885F985802F09953D
:101A3000892B31F48E819F8101969F838E8302C012
:101A40000FEF1FEFC801DF91CF911F910F91089504
:101A5000FA01AA27283051F1203181F1E8946F93DF
:101A60006E7F6E5F7F4F8F4F9F4FAF4FB1E03ED085
:101A7000B4E03CD0670F781F891F9A1FA11D680F23
:101A8000791F8A1F911DA11D6A0F711D811D911D56
:101A9000A11D20D009F468943F912AE0269F1124CB
:101AA0003019305D3193DEF6CF010895462F47702F
:101AB000405D4193B3E00FD0C9F7F6CF462F4F708A
:101AC000405D4A3318F0495D31FD4052419302D0E8
:101AD000A9F7EACFB4E0A69597958795779567958E
:101AE000BA95C9F700976105710508959B01AC018E
:101AF0000A2E06945795479537952795BA95C9F7B5
:101B0000620F731F841F951FA01D08952F923F928F
:101B10004F925F926F927F928F929F92AF92BF92FD
:101B2000CF92DF92EF92FF920F931F93CF93DF93A9
:101B3000CDB7DEB7CA1BDB0B0FB6F894DEBF0FBE06
:101B4000CDBF09942A88398848885F846E847D8453
:101B50008C849B84AA84B984C884DF80EE80FD8055
:101B60000C811B81AA81B981CE0FD11D0FB6F894CB
:0E1B7000DEBF0FBECDBFED010895F894FFCF8C
:101B7E0001014652513A20253033642E253031640E
:101B8E0020487A20004143433A20253033642073A5
:101B9E00656320004445433A202530336420736545
:101BAE0063200020205350574D20746573742121FB
:101BBE0021006279203A0053682E204E6F757262B2
:101BCE00616B68736800436F707972696768743A05
:0E1BDE0000202020204F5A48414E204B44004A
:00000001FF
