:0C0000000C94AA040C9400000C94000066
:10000C000C9400000C9400000C9400000C94000064
:10001C000C9400000C9400000C9400000C94000054
:10002C000C9400000C9400000C9400000C94000044
:10003C000C9400000C9400000C9400000C94000034
:10004C000C9400000C9400000C9414050C9400000B
:10005C000C9400000C9400000C9400000C94CA0446
:10006C000C9400000C9400000C9400000C94000004
:10007C000C9400000C9400000C9400000C940000F4
:10008C00808386898C8F9295989C9FA2A5A8ABAEF5
:10009C00B0B3B6B9BCBFC1C4C7C9CCCED1D3D5D807
:1000AC00DADCDEE0E2E4E6E8EAECEDEFF0F2F3F5C0
:1000BC00F6F7F8F9FAFBFCFCFDFEFEFFFFFFFFFF75
:1000CC00FFFFFFFFFFFFFEFEFDFCFCFBFAF9F8F75C
:1000DC00F6F5F3F2F0EFEDECEAE8E6E4E2E0DEDC74
:1000EC00DAD8D5D3D1CECCC9C7C4C1BFBCB9B6B38D
:1000FC00B0AEABA8A5A29F9C9895928F8C89868355
:10010C00807C797673706D6A6763605D5A57545161
:10011C004F4C494643403E3B383633312E2C2A2730
:10012C002523211F1D1B1917151312100F0D0C0A57
:10013C000908070605040303020101000000000082
:10014C00000000000000010102030304050607087B
:10015C00090A0C0D0F1012131517191B1D1F212343
:10016C0025272A2C2E313336383B3E404346494C0A
:10017C004F5154575A5D6063676A6D707376797C22
:10018C0024F473CB63AE9698A287127AF96EBA6593
:10019C00E65D315761514B4CCE47D1433F40093D51
:1001AC00213A7D371335DD32D430F32E362D992B91
:1001BC00182AB12861272626FE24E723E122E9210B
:1001CC00FE2020204D1F841EC61D101D631CBE1B4F
:1001DC00201B891AF9196E19EA186A18EF177A1781
:1001EC0008179B163216CC156A150C15B114581439
:1001FC000314B01360131313C8127F123812F411C6
:10020C00B11170113111F410B9107F10471010108A
:10021C00DA0FA60F740F420F120FE30EB50E880EF5
:10022C005C0E320E080EDF0DB70D900D6A0D450DEC
:10023C00200DFC0CD90CB70C960C750C550C350C10
:10024C00160CF80BDA0BBD0BA00B840B690B4E0BC9
:10025C00330B190BFF0AE60ACD0AB50A9D0A860A6A
:10026C006F0A580A420A2C0A170A010AED09D80922
:10027C00C409B0099D0989097609640951093F0926
:10028C002E091C090B09FA08E908D808C808B8088F
:10029C00A808990889087A086B085C084E083F087A
:1002AC003108230816080808FA07ED07E007D307FA
:1002BC00C607BA07AD07A107950789077D07710720
:1002CC0066075B074F07440739072E0723071907F3
:1002DC000E070407FA06F006E606DC06D206C80688
:1002EC00BF06B506AC06A2069906900687067E06E2
:1002FC0075066D0664065C0653064B0643063A0605
:10030C0032062A062206350C250C160C070CF80BA7
:10031C00E90BDA0BCB0BBD0BAE0BA00B920B840BCA
:10032C00760B690B5B0B4E0B400B330B260B190B2F
:10033C000C0BFF0AF30AE60ADA0ACD0AC10AB50A5F
:10034C00A90A9D0A920A860A7A0A6F0A640A580A4E
:10035C004D0A420A370A2C0A210A170A0C0A010A0A
:10036C00F709ED09E209D809CE09C409BA09B0099F
:10037C00A6099D0993098909800976096D09640903
:10038C005B09510948093F0936092E0925091C0941
:10039C0013090B090209FA08F108E908E108D80861
:1003AC00D008C808C008B808B008A808A008990860
:1003BC009108890882087A0873086B0864085C083D
:1003CC0055084E0847083F08380831082A08230802
:1003DC001C0816080F0808080108FA07F407ED07AF
:1003EC00E707E007DA07D307CD07C607C007BA0748
:1003FC00B407AD07A707A1079B0795078F078907C8
:10040C0083077D07770771076C07660760075B0733
:10041C0055074F074A0744073F07390734072E078C
:10042C00290723071E07190714070E0709070407D6
:10043C00FF06FA06F506F006EB06E606E106DC0614
:10044C00D706D206CD06C806C306BF06BA06B50641
:10045C00B006AC06A706A2069E069906950690065F
:10046C008C06870683067E067A06750671066D066F
:10047C006806640660065C06570653064F064B0674
:10048C00470643063E063A06360632062E062A066E
:10049C00260622061E06350C2D0C250C1E0C160CE1
:1004AC000E0C070CFF0BF80BF00BE90BE10BDA0B46
:1004BC00D30BCB0BC40BBD0BB60BAE0BA70BA00B0E
:1004CC00990B920B8B0B840B7D0B760B6F0B690BC3
:1004DC00620B5B0B540B4E0B470B400B3A0B330B65
:1004EC002C0B260B1F0B190B120B0C0B060BFF0AFC
:1004FC00F90AF30AEC0AE60AE00ADA0AD40ACD0A87
:10050C00C70AC10ABB0AB50AAF0AA90AA30A9D0AFF
:10051C00970A920A8C0A860A800A7A0A750A6F0A66
:10052C00690A640A5E0A580A530A4D0A480A420AC2
:10053C003D0A370A320A2C0A270A210A1C0A170A12
:10054C00110A0C0A070A010AFC09F709F209ED095C
:10055C00E709E209DD09D809D309CE09C909C4099B
:10056C00BF09BA09B509B009AB09A609A1099D09CA
:10057C00980993098E098909850980097B097609EF
:10058C0072096D09680964095F095B09560951090B
:10059C004D09480944093F093B09360932092E091E
:1005AC002909250920091C09180913090F090B0928
:1005BC0007090209FE08FA08F608F108ED08E9082F
:1005CC00E508E108DD08D808D408D008CC08C8082C
:1005DC00C408C008BC08B808B408B008AC08A8081F
:1005EC00A408A0089D089908950891088D08890809
:1005FC00860882087E087A08760873086F086B08EC
:10060C006708640860085C085908550851084E08CA
:10061C004A08470843083F083C08380835083108A1
:10062C002E082A08270847104010391032102B10BA
:10063C0024101D101710101009100210FC0FF50FCC
:10064C00EE0FE80FE10FDA0FD40FCD0FC70FC00F6D
:10065C00BA0FB30FAD0FA60FA00F9A0F930F8D0FFC
:10066C00870F800F7A0F740F6D0F670F610F5B0F81
:10067C00550F4E0F480F420F3C0F360F300F2A0FFD
:10068C00240F1E0F180F120F0C0F060F000FFA0E6F
:10069C00F40EEF0EE90EE30EDD0ED70ED20ECC0EDD
:1006AC00C60EC00EBB0EB50EAF0EAA0EA40E9F0E3C
:1006BC00990E930E8E0E880E830E7D0E780E720E92
:1006CC006D0E670E620E5C0E570E520E4C0E470EE0
:1006DC00420E3C0E370E320E2C0E270E220E1D0E25
:1006EC00180E120E0D0E080E030EFE0DF90DF30D65
:1006FC00EE0DE90DE40DDF0DDA0DD50DD00DCB0DA2
:10070C00C60DC10DBC0DB70DB20DAD0DA90DA40DCF
:10071C009F0D9A0D950D900D8B0D870D820D7D0DF6
:10072C00780D740D6F0D6A0D650D610D5C0D570D17
:10073C00530D4E0D490D450D400D3C0D370D320D31
:10074C002E0D290D250D200D1C0D170D130D0E0D45
:10075C000A0D050D010DFC0CF80CF40CEF0CEB0C58
:10076C00E70CE20CDE0CD90CD50CD10CCD0CC80C62
:10077C00C40CC00CBB0CB70CB30CAF0CAB0CA60C64
:10078C00A20C9E0C9A0C960C920C8D0C890C850C60
:10079C00810C7D0C790C750C710C6D0C690C650C55
:1007AC00610C5D0C590C550C510C4D0C490C450C45
:1007BC00410C3D0C390C6A1862185A1853184B1816
:1007CC0043183B1834182C1824181D1815180E181B
:1007DC000618FF17F717EF17E817E017D917D217F6
:1007EC00CA17C317BB17B417AD17A5179E179717C2
:1007FC008F17881781177A1772176B1764175D1785
:10080C0056174F1747174017391732172B1724173E
:10081C001D1716170F1708170117FA16F316ED16F2
:10082C00E616DF16D816D116CA16C416BD16B6169D
:10083C00AF16A816A2169B1694168E16871680163F
:10084C007A1673166D1666165F16591652164C16D6
:10085C0045163F16381632162B1625161F16181667
:10086C0012160B160516FF15F815F215EC15E515F5
:10087C00DF15D915D315CC15C615C015BA15B41579
:10088C00AD15A715A1159B1595158F1589158315F4
:10089C007D15771570156A1564155E155815531569
:1008AC004D15471541153B1535152F1529152315D4
:1008BC001D15181512150C1506150015FB14F5143D
:1008CC00EF14E914E414DE14D814D214CD14C714A4
:1008DC00C114BC14B614B114AB14A514A0149A14FE
:1008EC0095148F148A1484147F14791474146E1450
:1008FC00691463145E14581453144E14481443149E
:10090C003D14381433142D14281423141D141814E6
:10091C0013140D1408140314FE13F813F313EE132D
:10092C00E913E413DE13D913D413CF13CA13C5136D
:10093C00C013BB13B513B013AB13A613A1139C13A5
:10094C00971392138D138813F894EE27ECBBF1E0F8
:10095C00F5BFE5BFE0936C00F8E1F1BDE1BD8DE0C2
:10096C00A2E0BB27ED938A95E9F780E090E1A0E047
:10097C00B1E0ED930197E9F7EFEFEDBFE0E1EEBFEA
:10098C00C0E0D5E00C948D05AA93BA93EA93FA9340
:10099C00EFB7EA93E2D0AB31E3E0BE0720F0E09191
:1009AC000205E05F1EC0D9D0A335E2E0BE0720F0FF
:1009BC00E0910205E85F15C0D0D0AB38E1E0BE078E
:1009CC0020F0E0910205EC5F0CC0C7D0A33CE0E046
:1009DC00BE0720F0E0910205EE5F03C0E091020536
:1009EC00EF5FE0930205BED0C1D0FBBDEABDBAD02B
:1009FC00EC5AFF4FC0D0BAD0F9BDE8BDB3D0E65524
:100A0C00FF4FB9D0E457FF4FE491E0937800E991A0
:100A1C00EFBFF991E991B991A99118950A92AA930E
:100A2C00BA93EA93FA93EFB7EA93E4B1F5B1A091D4
:100A3C000305B0910405EA0FFB1FE0930305F09347
:100A4C000405369AA0910505AF5FA0930505A03467
:100A5C0011F00C9485052297E0E0E0930505A09138
:100A6C000305B0910405E6E00E94C905E883F9830B
:100A7C00E0E0E0930305E0930405A881B9811E979B
:100A8C0070F4EFB5E775EFBDE0918A00EE7F76D09C
:100A9C00EF7EE0937D00E0E1E0937C002FC0A88125
:100AAC00B981A23FE3E0BE0720F4E881F9813E97CB
:100ABC0002C0E3EEF3E0E0930005F0930105E09152
:100ACC000005F0910105ACE8B1E0EE0FFF1FEA0F55
:100ADC00FB1F0E94D2053197E883F983E981E093EB
:100AEC008700E881E0938600EFB5E86AEFBDE091FE
:100AFC008A00E16043D0E061E0937D002296E991A9
:100B0C00EFBFF991E991B991A99109901895E0EE8F
:100B1C00E7BBECE8F0E0E491F0E0FBBDEABDE1EE10
:100B2C00F0E0E491F0E0F9BDE8BDE6E3F1E0E4913A
:100B3C00E0937800EFB5E96AEFBDE1E0EEBDE4E0EB
:100B4C00E0938700E1EEE0938600E9E017D0E061E6
:100B5C00E0937D007894FFCFFFCFA0910005B0917A
:100B6C0001050895E0910205F0E00895E457FF4F68
:100B7C00E491F0E00895F0E0F0E00895E0938A004D
:100B8C00E0917D000895EE230E2EFD0121F0F695E7
:100B9C00E7950A94E1F708950590F491E02D0895F6
:00000001FF
